:100000000C942A000C9434000C9434000C943400AA
:100010000C9434000C9434000C9434000C94340090
:100020000C9434000C9434000C9434000C94340080
:100030000C9434000C9434000C9434000C94340070
:100040000C9434000C9434000C9434000C94340060
:100050000C94340011241FBECFE5D4E0DEBFCDBF29
:100060000E9436000C94F3000C9400001F938FEF55
:100070008ABB0E94440011E00E944C00813411F4BC
:100080001BBBFACF1BBAF8CF8CE089B910BC86E84D
:1000900080BD88ED8AB908955F9BFECF8CB108952D
:1000A0005D9BFECF8CB90895982F5D9BFECF8EE5AA
:1000B0008CB95D9BFECF9CB95D9BFECF90959CB9A2
:1000C0005D9BFECF85E28CB908950F931F93DF935C
:1000D000CF9300D000D00F92CDB7DEB79C018B013B
:1000E000FE01319685E0DF011D928A95E9F7FE0158
:1000F00035960DC0C9016AE070E00E94CC00808393
:10010000C9016AE070E00E94CC009B013197211583
:10011000310581F7BFEF0F3F1B0771F4A0E0B0E09E
:100120009E012F5F3F4F01C01196F901EA0FFB1F9F
:1001300080818823C9F304C0A5E0B0E0A01BB10B07
:10014000A530B105ACF4AC0FBD1F11968C915D9B31
:10015000FECF805D8CB984EC99E0FC013197F1F71A
:10016000FC013197F1F7FC013197F1F70197F1F7B5
:100170000F900F900F900F900F90CF91DF911F91E4
:100180000F910895FC0104C05D9BFECF31968CB9A0
:1001900080818823C9F7089597FB092E07260AD086
:1001A00077FD04D00CD006D000201AF4709561952C
:1001B0007F4F0895F6F7909581959F4F0895AA1B5C
:1001C000BB1B51E107C0AA1FBB1FA617B70710F042
:1001D000A61BB70B881F991F5A95A9F78095909574
:0A01E000BC01CD010895F894FFCF93
:00000001FF
