:100000000C942A000C9434000C9434000C943400AA
:100010000C9434000C9434000C9434000C94340090
:100020000C9434000C9434000C9434000C94340080
:100030000C9434000C9434000C9434000C94340070
:100040000C9434000C9434000C9434000C94340060
:100050000C94340011241FBECFE5D4E0DEBFCDBF29
:100060000E9436000C945F000C9400008FEF84BB5C
:100070007FE329E130E06EE35CE348E375BB80E1B8
:1000800097E2F9013197F1F70197D9F765BB80E164
:1000900097E2F9013197F1F70197D9F755BB80E164
:1000A00097E2F9013197F1F70197D9F745BB80E164
:1000B00097E2F9013197F1F70197D9F7DFCFF8947B
:0200C000FFCF70
:00000001FF
