:100000000C942A000C9447000C9447000C94470071
:100010000C9447000C9447000C9447000C94470044
:100020000C9447000C9447000C9447000C94470034
:100030000C9447000C9447000C9447000C94470024
:100040000C9447000C9447000C9447000C94470014
:100050000C94470011241FBECFE5D4E0DEBFCDBF16
:1000600010E0A0E6B0E0EAE9F3E002C005900D92EE
:10007000AC36B107D9F710E0ACE6B0E001C01D9294
:10008000A837B107E1F70E9490010C94CB010C94C2
:1000900000008AEF90E0FC013197F1F7A898A99849
:1000A00040E345BBAA9A22EE34E0F9013197F1F71B
:1000B000AA98FC013197F1F7A898A99845BBAA9A8C
:1000C000F9013197F1F7AA98FC013197F1F7A89857
:1000D000A99845BBAA9AF9013197F1F7AA98019717
:1000E000F1F7A898A99880E285BBAA9AC90101975F
:1000F000F1F7AA98089595B39F7095BB25B3982FF3
:10010000907F922B95BBA898A998AA9A22EE34E0EA
:10011000F9013197F1F7AA9895B39F7095BB95B304
:100120008295807F982B95BBA898A998AA9AC90117
:100130000197F1F7AA9808950E9449008AEF90E08C
:100140000197F1F788E20E947B0081E00E947B002A
:1001500086E00E947B008EE00E947B0080E80E9487
:100160007B00089595B39F7095BB25B3982F907F22
:10017000922B95BBA89AA998AA9A22EE34E0F9018D
:100180003197F1F7AA9895B39F7095BB95B3829577
:10019000807F982B95BBA89AA998AA9AC901019724
:1001A000F1F7AA98089580E80E947B000895CF9304
:1001B000DF93EC0103C00E94B2002196888188235E
:1001C000D1F7DF91CF910895823069F0833018F430
:1001D0008130A9F405C0833049F0843081F40BC02C
:1001E000862F815805C0862F815402C0862F8D56D8
:1001F0000E947B000895862F8D520E947B000895F7
:100200000F931F93CF93DF938A01E901882311F0A5
:10021000662319F40E94D30002C00E94E400C53096
:10022000D10571F4C80160E177E20E94B701CB010A
:10023000C09690936D0080936C000E94B20005C040
:10024000C430D10511F080E016C0C80168EE73E03B
:100250000E94B701CB0160936E0090936F006AE03B
:1002600070E00E94B701C09690937700809376006B
:100270000E94B20081E0C330D10521F0813011F03D
:1002800080E016C0C80164E670E00E94B701CB01AF
:1002900060936E0090936F006AE070E00E94B70177
:1002A000C09690937300809372000E94B20081E028
:1002B000C230D10521F0813011F080E016C0C801B4
:1002C0006AE070E00E94B701CB0160936E009093EA
:1002D0006F006AE070E00E94B701C09690937100D1
:1002E000809370000E94B20081E0C130D10511F00E
:1002F000813061F4C8016AE070E00E94B701C096E5
:1003000090937500809374000E94B20026971CF0B1
:1003100085E40E94B200DF91CF911F910F91089563
:10032000CF93DF9384B3876F84BB85B3807885BB1D
:100330000E949C0081E061E00E94E400C9E1D0E0FD
:1003400080E690E00E94D70080E29EE4FE013197B3
:10035000F1F70197D9F786E690E00E94D70080E296
:100360009EE4FE013197F1F70197D9F7E9CFAA1B77
:10037000BB1B51E107C0AA1FBB1FA617B70710F090
:10038000A61BB70B881F991F5A95A9F780959095C2
:0A039000BC01CD010895F894FFCFE1
:0C039A0068656C6C6F0068656C6C00009E
:00000001FF
