:100000000C942A000C9447000C9447000C94470071
:100010000C9447000C9447000C9447000C94470044
:100020000C9447000C9447000C9447000C94470034
:100030000C9447000C9447000C9447000C94470024
:100040000C9447000C9447000C9447000C94470014
:100050000C94470011241FBECFE5D4E0DEBFCDBF16
:1000600010E0A0E6B0E0EEE9F3E002C005900D92EA
:10007000AA37B107D9F710E0AAE7B0E001C01D9296
:10008000A638B107E1F70E9490010C94CD010C94C1
:1000900000008AEF90E0FC013197F1F7A898A99849
:1000A00040E345BBAA9A22EE34E0F9013197F1F71B
:1000B000AA98FC013197F1F7A898A99845BBAA9A8C
:1000C000F9013197F1F7AA98FC013197F1F7A89857
:1000D000A99845BBAA9AF9013197F1F7AA98019717
:1000E000F1F7A898A99880E285BBAA9AC90101975F
:1000F000F1F7AA98089595B39F7095BB25B3982FF3
:10010000907F922B95BBA898A998AA9A22EE34E0EA
:10011000F9013197F1F7AA9895B39F7095BB95B304
:100120008295807F982B95BBA898A998AA9AC90117
:100130000197F1F7AA9808950E9449008AEF90E08C
:100140000197F1F788E20E947B0081E00E947B002A
:1001500086E00E947B008EE00E947B0080E80E9487
:100160007B00089595B39F7095BB25B3982F907F22
:10017000922B95BBA89AA998AA9A22EE34E0F9018D
:100180003197F1F7AA9895B39F7095BB95B3829577
:10019000807F982B95BBA89AA998AA9AC901019724
:1001A000F1F7AA98089580E80E947B000895CF9304
:1001B000DF93EC0103C00E94B2002196888188235E
:1001C000D1F7DF91CF910895823069F0833018F430
:1001D0008130A9F405C0833049F0843081F40BC02C
:1001E000862F815805C0862F815402C0862F8D56D8
:1001F0000E947B000895862F8D520E947B000895F7
:100200000F931F93CF93DF938A01E901882311F0A5
:10021000662319F40E94D30002C00E94E400C53096
:10022000D10571F4C80160E177E20E94B901CB0108
:10023000C09690937B0080937A000E94B20005C024
:10024000C430D10511F080E016C0C80168EE73E03B
:100250000E94B901CB0160937C0090937D006AE01D
:1002600070E00E94B901C09690938500809384004D
:100270000E94B20081E0C330D10521F0813011F03D
:1002800080E016C0C80164E670E00E94B901CB01AD
:1002900060937C0090937D006AE070E00E94B90159
:1002A000C09690938100809380000E94B20081E00C
:1002B000C230D10521F0813011F080E016C0C801B4
:1002C0006AE070E00E94B901CB0160937C009093DA
:1002D0007D006AE070E00E94B901C09690937F00B3
:1002E00080937E000E94B20081E0C130D10511F000
:1002F000813061F4C8016AE070E00E94B901C096E3
:1003000090938300809382000E94B20026971CF095
:1003100085E40E94B200DF91CF911F910F91089563
:100320000F931F938AB38ABB8FEF81BB84B3876F10
:1003300084BB85B3807885BB0E949C0081E061E02E
:100340000E94E40000EA10EC89B3882339F402BB70
:100350000E949C0080E690E00E94D70089B3813023
:1003600099F712BB0E949C008AE690E00E94D70099
:10037000EBCFAA1BBB1B51E107C0AA1FBB1FA617CF
:10038000B70710F0A61BB70B881F991F5A95A9F73E
:0E03900080959095BC01CD010895F894FFCFA3
:10039E00436C6F636B7769736500416E74692D638F
:0A03AE006C6F636B776973650000E4
:00000001FF
